S01700004763634170706C69636174696F6E312E737265635B
S11300000C942A000C943C000C943C000C943C008E
S11300100C943C000C943C000C943C000C943C006C
S11300200C943C000C943C000C943C000C943C005C
S11300300C943C000C9494000C943C000C943C00F4
S11300400C943C000C943C000C943C000C943C003C
S11300500C943C0011241FBECFE5D8E0DEBFCDBF19
S113006020E0A0E6B0E001C01D92A136B207E1F79E
S11300700E9424010C9448010C94000088BB8BB3AB
S11300808F7E8BBB8BB38F7D8BBB8BB380648BBB21
S11300908FE39FE10197F1F700C000008BB38F7BE2
S11300A08BBB089588E30E943E008FE99FE001978F
S11300B0F1F700C0000081E00E943E008FE99FE05C
S11300C00197F1F700C0000082E00E943E008FE932
S11300D09FE00197F1F700C0000086E00E943E0017
S11300E08FE99FE00197F1F700C0000080E80E94CB
S11300F03E008FE99FE00197F1F700C000000895EA
S113010088BB8BB380618BBB8BB38F7D8BBB8BB375
S113011080648BBB8FE39FE10197F1F700C000007F
S11301208BB38F7B8BBB08951F920F920FB60F92E8
S113013011242F933F934F935F936F937F938F93E8
S11301409F93AF93BF93EF93FF938CB18093600021
S1130150823609F44AC028F48C34E1F0823551F037
S113016061C08D3639F1833709F44FC0863609F002
S113017059C02BC085B3896085BB85B3897F85BB96
S113018088E893E199BD88BD9BBD8ABD82E50E9444
S1130190800049C085B3866085BB85B3867F85BBF7
S11301A088E893E199BD88BD9BBD8ABD8CE40E941B
S11301B0800039C085B38F6085BB19BC18BC1BBCDB
S11301C01ABC80E30E9480002EC085B3856085BB85
S11301D085B3857F85BB88E893E199BD88BD9BBDC8
S11301E08ABD86E60E9480001EC085B38A6085BBF6
S11301F085B38A7F85BB88E893E199BD88BD9BBDA3
S11302008ABD82E60E9480000EC085B38F6085BBE4
S113021088E893E199BD88BD9BBD8ABD83E70E94B0
S1130220800001C01BBAFF91EF91BF91AF919F91E4
S11302308F917F916F915F914F913F912F910F908B
S11302400FBE0F901F9018958FEF8ABB84BB81B3AC
S1130250806381BB80B5866880BD87E689B98AB131
S113026080698AB980E197E297BD86BD86B597B566
S11302709BBD8ABD86B597B599BD88BD8FB5826F84
S11302808FBD8EB58A618EBD78940E945200FFCFD7
S1070290F894FFCF0C
S9030000FC
